{
  "contractName": "AvaAccess",
  "abi": [
    {
      "constant": true,
      "inputs": [],
      "name": "wallet",
      "outputs": [
        {
          "name": "",
          "type": "address"
        }
      ],
      "payable": false,
      "stateMutability": "view",
      "type": "function"
    },
    {
      "constant": true,
      "inputs": [],
      "name": "avaTokenAddress",
      "outputs": [
        {
          "name": "",
          "type": "address"
        }
      ],
      "payable": false,
      "stateMutability": "view",
      "type": "function"
    },
    {
      "constant": true,
      "inputs": [],
      "name": "avaToken",
      "outputs": [
        {
          "name": "",
          "type": "address"
        }
      ],
      "payable": false,
      "stateMutability": "view",
      "type": "function"
    },
    {
      "constant": false,
      "inputs": [],
      "name": "payme",
      "outputs": [],
      "payable": false,
      "stateMutability": "nonpayable",
      "type": "function"
    },
    {
      "constant": false,
      "inputs": [],
      "name": "letmeIn",
      "outputs": [
        {
          "name": "",
          "type": "bool"
        }
      ],
      "payable": false,
      "stateMutability": "nonpayable",
      "type": "function"
    },
    {
      "inputs": [
        {
          "name": "_avatoken",
          "type": "address"
        },
        {
          "name": "_wallet",
          "type": "address"
        }
      ],
      "payable": false,
      "stateMutability": "nonpayable",
      "type": "constructor"
    },
    {
      "payable": true,
      "stateMutability": "payable",
      "type": "fallback"
    },
    {
      "anonymous": false,
      "inputs": [
        {
          "indexed": true,
          "name": "_from",
          "type": "address"
        },
        {
          "indexed": false,
          "name": "error",
          "type": "bool"
        },
        {
          "indexed": false,
          "name": "message",
          "type": "string"
        }
      ],
      "name": "Log",
      "type": "event"
    }
  ],
  "bytecode": "0x6060604052341561000f57600080fd5b604051604080610bfe83398101604052808051906020019091908051906020019091905050816000806101000a81548173ffffffffffffffffffffffffffffffffffffffff021916908373ffffffffffffffffffffffffffffffffffffffff16021790555080600160006101000a81548173ffffffffffffffffffffffffffffffffffffffff021916908373ffffffffffffffffffffffffffffffffffffffff16021790555081600260006101000a81548173ffffffffffffffffffffffffffffffffffffffff021916908373ffffffffffffffffffffffffffffffffffffffff1602179055505050610af7806101076000396000f30060606040526004361061006d576000357c0100000000000000000000000000000000000000000000000000000000900463ffffffff168063521eb2731461018357806393f49e94146101d8578063b45cc7471461022d578063ba6361fb14610282578063e63ace2c14610297575b3373ffffffffffffffffffffffffffffffffffffffff167f47f6c55fa9b701a9ed05a2316754d4c2cbe9cf7c77e5b40119acbc94e5ba973360006040518082151515158152602001806020018281038252602b8152602001807f476f742070616964212077686f206b6e6f77732077687920627574204920776981526020017f6c6c2074616b65206974210000000000000000000000000000000000000000008152506040019250505060405180910390a2600160009054906101000a900473ffffffffffffffffffffffffffffffffffffffff1673ffffffffffffffffffffffffffffffffffffffff166108fc349081150290604051600060405180830381858888f19350505050151561018157600080fd5b005b341561018e57600080fd5b6101966102c4565b604051808273ffffffffffffffffffffffffffffffffffffffff1673ffffffffffffffffffffffffffffffffffffffff16815260200191505060405180910390f35b34156101e357600080fd5b6101eb6102ea565b604051808273ffffffffffffffffffffffffffffffffffffffff1673ffffffffffffffffffffffffffffffffffffffff16815260200191505060405180910390f35b341561023857600080fd5b61024061030f565b604051808273ffffffffffffffffffffffffffffffffffffffff1673ffffffffffffffffffffffffffffffffffffffff16815260200191505060405180910390f35b341561028d57600080fd5b610295610335565b005b34156102a257600080fd5b6102aa610521565b604051808215151515815260200191505060405180910390f35b600160009054906101000a900473ffffffffffffffffffffffffffffffffffffffff1681565b6000809054906101000a900473ffffffffffffffffffffffffffffffffffffffff1681565b600260009054906101000a900473ffffffffffffffffffffffffffffffffffffffff1681565b600260009054906101000a900473ffffffffffffffffffffffffffffffffffffffff1673ffffffffffffffffffffffffffffffffffffffff1663a9059cbb600160009054906101000a900473ffffffffffffffffffffffffffffffffffffffff16600260009054906101000a900473ffffffffffffffffffffffffffffffffffffffff1673ffffffffffffffffffffffffffffffffffffffff166370a08231306000604051602001526040518263ffffffff167c0100000000000000000000000000000000000000000000000000000000028152600401808273ffffffffffffffffffffffffffffffffffffffff1673ffffffffffffffffffffffffffffffffffffffff168152602001915050602060405180830381600087803b151561045b57600080fd5b6102c65a03f1151561046c57600080fd5b505050604051805190506000604051602001526040518363ffffffff167c0100000000000000000000000000000000000000000000000000000000028152600401808373ffffffffffffffffffffffffffffffffffffffff1673ffffffffffffffffffffffffffffffffffffffff16815260200182815260200192505050602060405180830381600087803b151561050357600080fd5b6102c65a03f1151561051457600080fd5b5050506040518051905050565b600080600260009054906101000a900473ffffffffffffffffffffffffffffffffffffffff1673ffffffffffffffffffffffffffffffffffffffff1663dd62ed3e33306000604051602001526040518363ffffffff167c0100000000000000000000000000000000000000000000000000000000028152600401808373ffffffffffffffffffffffffffffffffffffffff1673ffffffffffffffffffffffffffffffffffffffff1681526020018273ffffffffffffffffffffffffffffffffffffffff1673ffffffffffffffffffffffffffffffffffffffff16815260200192505050602060405180830381600087803b151561061d57600080fd5b6102c65a03f1151561062e57600080fd5b505050604051805190509050662386f26fc10000811015610704573373ffffffffffffffffffffffffffffffffffffffff167f47f6c55fa9b701a9ed05a2316754d4c2cbe9cf7c77e5b40119acbc94e5ba973360016040518082151515158152602001806020018281038252603f8152602001807f6572726f723a20746f6b656e2076616c756520697320746f6f20736d616c6c2081526020017f2d207265717569726573206174206c6561737420312061766120746f6b656e008152506040019250505060405180910390a2600091506107c5565b3373ffffffffffffffffffffffffffffffffffffffff167f47f6c55fa9b701a9ed05a2316754d4c2cbe9cf7c77e5b40119acbc94e5ba97336000604051808215151515815260200180602001828103825260298152602001807f5365637265743a20687474703a2f2f7777772e746865617661636f696e2e636f81526020017f6d2f7365637265742f00000000000000000000000000000000000000000000008152506040019250505060405180910390a26107c033826107c9565b600191505b5090565b60003373ffffffffffffffffffffffffffffffffffffffff167f47f6c55fa9b701a9ed05a2316754d4c2cbe9cf7c77e5b40119acbc94e5ba973360006040518082151515158152602001806020018281038252603e8152602001807f5472616e7366657220696e69746961746564202d205365637265743a2068747481526020017f703a2f2f7777772e746865617661636f696e2e636f6d2f7365637265742f00008152506040019250505060405180910390a2600260009054906101000a900473ffffffffffffffffffffffffffffffffffffffff1673ffffffffffffffffffffffffffffffffffffffff166323b872dd8430856000604051602001526040518463ffffffff167c0100000000000000000000000000000000000000000000000000000000028152600401808473ffffffffffffffffffffffffffffffffffffffff1673ffffffffffffffffffffffffffffffffffffffff1681526020018373ffffffffffffffffffffffffffffffffffffffff1673ffffffffffffffffffffffffffffffffffffffff1681526020018281526020019350505050602060405180830381600087803b151561097e57600080fd5b6102c65a03f1151561098f57600080fd5b505050604051805190509050600115158115151415610a39573373ffffffffffffffffffffffffffffffffffffffff167f47f6c55fa9b701a9ed05a2316754d4c2cbe9cf7c77e5b40119acbc94e5ba97336000604051808215151515815260200180602001828103825260128152602001807f5472616e7366657220436f6d706c6574652e00000000000000000000000000008152506020019250505060405180910390a2610ac6565b3373ffffffffffffffffffffffffffffffffffffffff167f47f6c55fa9b701a9ed05a2316754d4c2cbe9cf7c77e5b40119acbc94e5ba97336001604051808215151515815260200180602001828103825260118152602001807f4572726f7220696e207472616e736665720000000000000000000000000000008152506020019250505060405180910390a25b5050505600a165627a7a72305820a09b6ddeda0a3a8c157a817abfce0aaa743ac39281f3ee3ae6a4bb38a6eafe1c0029",
  "source": "pragma solidity ^0.4.6;\n\nimport './AvaCoin.sol';\n\ncontract AvaAccess {\n    address public avaTokenAddress;\n    address public wallet;\n    AvaCoin public avaToken;\n\n    event Log(address indexed _from, bool error, string message);\n\n    function AvaAccess(address _avatoken, address _wallet) {\n        avaTokenAddress = _avatoken;\n        wallet = _wallet;\n        avaToken = AvaCoin(_avatoken);\n    }\n\n    function () external payable {\n        Log(msg.sender, false, \"Got paid! who knows why but I will take it!\");\n        wallet.transfer(msg.value);\n    }\n\n    function payme() public {\n        avaToken.transfer(wallet, avaToken.balanceOf(address(this)));\n    }\n    \n    function pulltoken(address fromAccount, uint256 amount) private {\n        Log(msg.sender, false, \"Transfer initiated - Secret: http://www.theavacoin.com/secret/\");\n        bool success = avaToken.transferFrom(fromAccount, address(this), amount);\n        if (success == true) {\n            Log(msg.sender, false, \"Transfer Complete.\");\n        } else {\n            Log(msg.sender, true, \"Error in transfer\");\n        }\n    }\n\n    function letmeIn() public returns (bool) {\n        var val = avaToken.allowance(msg.sender, address(this));\n        if (val < .01 ether) {\n            Log(msg.sender, true, \"error: token value is too small - requires at least 1 ava token\");\n            return false;\n        }\n        Log(msg.sender, false, \"Secret: http://www.theavacoin.com/secret/\");\n        pulltoken(msg.sender, val);\n        return true;\n    }\n}",
  "sourcePath": "/Users/caleb/Dropbox/Projects/blockchain/avacoin/contract/contracts/AvaAccess.sol",
  "compiler": {
    "name": "solc",
    "version": "0.4.18+commit.9cf6e910.Emscripten.clang"
  },
  "schemaVersion": "1.0.1",
  "updatedAt": "2017-12-09T07:13:13.938Z"
}